:200000000C9406080C9427080C9427080C9427080C9427080C9427080C9427080C94270889
:200020000C9427080C94AB4C0C9427080C94EE460C9427080C9427080C9427080C9427087B
:200040000C9427080C9449470C9427080C9427080C9427080C9427080C9427080C942C4783
:200060000C9427080C94EC4B0C947D4C0C9427080C9427080C9427080C9427080C94270866
:200080000C9427080C9427080C9427080C9427080C9427080C9427080C9427080C942708E8
:2000A0000C9427080C9427080C9427080C9427080C9427080C9427080C9427080C942708C8
:2000C0000C9427080C9427080C9427080C94854B0C944F4C0C9427080C9427080C9427089B
:2000E0000C942708084AD73B3BCE016E84BCBFFDC12F3D6C74319ABD56833DDA3D00C77F51
:2001000011BED9E4BB4C3E916BAAAABE000000803F05A84CCDB2D44EB93836A9020C50B9C0
:20012000918688083CA6AAAA2ABE000000803F000C94431F0C9464370C9440370C94651FC3
:200140000C944E360C94E01E0C9458370C94642B0C94F93E0C94A4400C945E1F0C946820DF
:200160000C94CC1E0C94D3360C949C1E0C947C1E0C945F430C9498360C94281F0C947120F0
:200180000C944C1F0C94303F0C94B31F0C94981F0C9485430C9434370C94612B0C94771EA8
:2001A0000C94A11F0C94FB1E0C94911E0C941E3F0C94A51E0C943D1F0C94D83E0C94C2362D
:2001C0000C94A0360C9462200C945E2B0C94183F0C94C1450C945B2B0C9403370C94AE1E55
:2001E0000C94EF360C943A330C94B61E0C94551F0C94161F0C9470370C9465200C94CB45B4
:200200000C94891E0C94672B0C9497430C94223F0C94AA1F0C94B2450C94991E0C946C4047
:200220000C94F81E0C9428370C94041F0C94C01E0C94BC1F0C94E91E0C94D41E0C94D71E7F
:200240000C940D370C943A1F0C94582B0C947C200C944C370C94401F0C941F1F0C94D736B5
:200260000C94C53E0C94741E0C94B1360C94D6450C94341F0C940D1F0C947F1E0C94F9369C
:200280000C94371F0C946D1E0C94E5360C94311F0C94283F0C94EF1E0C94512B0D0A574C08
:2002A0004B41544120526F626F742073746172746564207375636365737366756C6C792E6D
:2002C0004669726D776172652076657273696F6E3A4D54342C32303234303832300D0A00D7
:2002E0002424202876696577204772626C2073657474696E6773290D0A2423202876696568
:2003000077202320706172616D6574657273290D0A24472028766965772070617273657274
:20032000207374617465290D0A2449202876696577206275696C6420696E666F290D0A246C
:200340004E202876696577207374617274757020626C6F636B73290D0A24783D76616C75AA
:2003600065202873617665204772626C2073657474696E67290D0A244E783D6C696E65202D
:200380002873617665207374617274757020626C6F636B290D0A24432028636865636B201B
:2003A00067636F6465206D6F6465290D0A245820286B696C6C20616C61726D206C6F636BD0
:2003C000290D0A2448202872756E20686F6D696E67206379636C65290D0A7E2028637963BD
:2003E0006C65207374617274290D0A2120286665656420686F6C64290D0A3F2028637572C9
:2004000072656E7420737461747573290D0A6374726C2D7820287265736574204772626CB3
:20042000290D0A005D0D0A00205300204600205400204D3800204D3900204D3500204D342D
:2004400000204D3300204D3200204D3100204D3000204739340020473933002047393100AA
:20046000204739300020473230002047323100204731390020473138002047313700204742
:20048000004733382E00473830004733004732004731004730005B005D0D0A005B544C4FD2
:2004A0003A005D0D0A002C005B4739323A005D0D0A002C003A003330003238005B47005D75
:2004C0000D0A005B302E396A2E32303136303330333A000D0A003D00244E005D0D0A005226
:2004E0006573746F72696E672064656661756C74730050676D20456E640044697361626C6F
:20050000656400456E61626C65640043617574696F6E3A20556E6C6F636B65640027244872
:20052000277C2724582720746F20756E6C6F636B00526573657420746F20636F6E74696EEE
:200540007565005B004572726F722C2053656E736F72206461746120636865636B73756D69
:20056000206572726F7221000D0A002C00446174612C20436F6C6F723A000D0A004572728E
:200580006F722C413130362C4C6F636B656420737461747573206F66206561636820617895
:2005A0006973004572726F722C413130352C486F6D696E67206661696C004572726F722CD2
:2005C000413130342C50726F6265206661696C004572726F722C413130332C41626F727436
:2005E00020647572696E67206379636C65004572726F722C413130372C41786973203220E0
:20060000616E642033206861766520636F6E666C696374696E6720616E676C65732E3A00DE
:200620004572726F722C413130322C536F6674206C696D69743A004572726F722C41313097
:20064000312C48617264206C696D69743A00290D0A00206261636B6C61736820636F6D70DD
:20066000656E736174696F6E2064697374616E6365002072657365742064697374616E6365
:200680006500206D696E2074726176656C2C2064656700206D61782074726176656C2C2007
:2006A0006465670020616363656C2C206D6D2F7365635E3200206D617820726174652C2054
:2006C0006D6D2F6D696E002C20737465702F646567006700660065006400630062006100AA
:2006E0002028003D0024002028546865206D6178696D756D20335F61786973202D20325F65
:200700006178697320616E676C652076616C75652E290D0A00243534203D002028546865FF
:20072000206D6178696D756D20325F61786973202D20335F6178697320616E676C652076C4
:20074000616C75652E290D0A00243533203D002028456E61626C652073657269616C5F32DB
:200760002073656E736F72206D6F6465290D0A002028456E61626C65203774682061786996
:200780007320686F6D65290D0A243532203D002028303A206E6F20746F6F6C2C20313A2091
:2007A00073756374696F6E206375702C20323A20677269702C20333A20736F667420636CBE
:2007C0006177202866696E676572292C20343A20736F667420636C6177202862616C6C29EC
:2007E0002C20353A20437573746F6D290D0A2435313D0020284C696674696E672068656931
:20080000676874206F6620473520646F6F72207479706520747261636B290D0A2435303D13
:200820000020285A20746F6F6C206F6666736574290D0A2434393D0020285920746F6F6C04
:20084000206F6666736574290D0A2434383D0020285820746F6F6C206F6666736574290D89
:200860000A2434373D0020313A436F6E7665796F72206D6F64652E20303A5261696C206D30
:200880006F6465290D0A2434363D002028436F6E7665796F72206D6F64650020285261694F
:2008A0006C206D6F6465200020284C696E652064697363617264206E756D626572290D0A34
:2008C0002434353D0020285A206F6666736574290D0A2434343D00202859206F6666736528
:2008E00074290D0A2434333D00202858206F6666736574290D0A2434323D002028557365B9
:20090000206261636B20746F2074657874206F72206E6F74290D0A2434313D0020285573B6
:20092000652072657365745F706F73206F72206E6F74290D0A2434303D0020284E756D620D
:200940006572206F6620636F6D70656E736174696F6E290D0A2433393D00202855736520F9
:20096000636F6D70656E736174696F6E206F72206E6F74290D0A2433383D0020284E756D71
:20098000626572206F6620696E746572706F6C6174696F6E290D0A2433373D002028557366
:2009A0006520696E746572706F6C6174696F6E206F72206E6F74290D0A2433363D00202866
:2009C000484541445F484549474854206C656E677468290D0A2433353D00202843454E43E1
:2009E00045525F484549474854206C656E677468290D0A2433343D002028484541445F4F96
:200A00004646534554206C656E677468290D0A2433333D00202843454E4345525F4F464683
:200A2000534554206C656E677468290D0A2433323D0020284C494E4B41474532204C696E6A
:200A40006B206C656E677468290D0A2433313D0020284C494E4B41474531204C696E6B2042
:200A60006C656E677468290D0A2433303D002432393D00290D0A53657474696E677320660D
:200A80006F7220726F626F743A0D0A002028686F6D696E6720706F732064697220696E76D6
:200AA000657274206D61736B3A002028686F6D696E672070756C6C2D6F66662C206D6D2987
:200AC0000D0A2432383D002028686F6D696E67206465626F756E63652C206D736563290DDB
:200AE0000A2432373D002028686F6D696E67207365656B2C206D6D2F6D696E290D0A243261
:200B0000363D002028686F6D696E6720666565642C206D6D2F6D696E290D0A2432353D0043
:200B2000290D0A2432343D002028686F6D696E672064697220696E76657274206D61736B01
:200B40003A002028686F6D696E67206379636C652C20626F6F6C290D0A2432333D0020281B
:200B600068617264206C696D6974732C20626F6F6C290D0A2432323D002028736F66742003
:200B80006C696D6974732C20626F6F6C290D0A2432313D0020287265706F727420696E6389
:200BA0006865732C20626F6F6C290D0A2432303D00202861726320746F6C6572616E63659F
:200BC0002C206D6D290D0A2431333D0020286A756E6374696F6E20646576696174696F6E55
:200BE0002C206D6D290D0A2431323D00290D0A2431313D0020287374617475732072657075
:200C00006F7274206D61736B3A00202870726F62652070696E20696E766572742C20626FDD
:200C20006F6C290D0A2431303D0020286C696D69742070696E7320696E766572742C206230
:200C40006F6F6C290D0A24363D0020287374657020656E61626C6520696E766572742C20E4
:200C6000626F6F6C290D0A24353D00290D0A24343D00202864697220706F727420696E7644
:200C8000657274206D61736B3A00290D0A24333D0020287374657020706F727420696E76D9
:200CA000657274206D61736B3A002028737465702069646C652064656C61792C206D736561
:200CC00063290D0A24323D002028737465702070756C73652C2075736563290D0A24313DC3
:200CE0000024303D005D0D0A003A002C005B5052423A003E0D0A002C4C696D3A002C52585D
:200D00003A002C4275663A002C4D6F74696F6E5F4D4F44453A002C56616C76652050574D78
:200D20003A002C50756D702050574D3A002C002C43617274657369616E20636F6F726469CB
:200D40006E6174652858595A2052785279527A293A002C002C416E676C652841424344580B
:200D6000595A293A003C446F6F72003C436865636B003C416C61726D003C486F6D65003C49
:200D8000486F6C64003C486F6D65003C52756E003C416C61726D003C49646C65000D0A009C
:200DA0004572726F722C453030302C496E76616C69642067636F64652049443A0045727203
:200DC0006F722C453131372C696A6B20636F6D6D616E64206572726F72004572726F722C3F
:200DE000453131362C41726320726164697573206572726F72004572726F722C45313135D0
:200E00002C41726320636F6D6D616E64206F6E6C79206170706C69657320746F2043617268
:200E200074657369616E206D6F6465004572726F722C453131342C446F6F7220636F6D6DCC
:200E4000616E64206F6E6C79206170706C69657320746F2043617274657369616E206D6FB6
:200E60006465004572726F722C453131332C556E646566696E6564206665656420726174C0
:200E800065004572726F722C453131322C556E737570706F7274656420636F6D6D616E640A
:200EA000004572726F722C453131312C4D6F64616C2067726F75702076696F6C6174696F37
:200EC0006E00496E666F2C413130302C4C696E6520446973636172640A6F6B0A00496E6681
:200EE0006F2C453131302C4C696E65206F766572666C6F7700496E666F2C453130392C482D
:200F00006F6D696E67206E6F7420656E61626C656400496E666F2C453130382C416C617219
:200F20006D206C6F636B00496E666F2C453130372C4E6F742069646C6500496E666F2C45CE
:200F40003130362C454550524F4D2072656164206661696C2E205573696E6720646566618A
:200F6000756C747300496E666F2C453130352C56616C7565203C2033207573656300496EB7
:200F8000666F2C453130342C53657474696E672064697361626C656400496E666F2C4531E6
:200FA00030332C56616C7565203C203000496E666F2C453130322C496E76616C69642073E3
:200FC000746174656D656E7400496E666F2C453130312C426164206E756D62657220666F4F
:200FE000726D617400496E666F2C453130302C457870656374656420636F6D6D616E642032
:201000006C6574746572006F6B0D0A0011241FBECFEFD1E2DEBFCDBF00E00CBF14E0A0E084
:20102000B2E0EAE8F0EC00E00BBF02C007900D92A838B107D9F727E1A8E8B4E001C01D92CA
:20104000A73CB207E1F70E9493540C9443600C9400008F929F92AF92BF92CF92DF92EF9279
:20106000FF920F931F93CF93DF93EB0123EFE22E24E1F22E8C016B018CE1C80ED11C699161
:20108000799189919991F70181909190A190B1907F010E94F55CA50194010E944B5CF80176
:2010A00061937193819391938F01CC15DD0539F7DF91CF911F910F91FF90EF90DF90CF9081
:2010C000BF90AF909F908F900895CF93DF93C091C414D091C5142097B9F081E08093C714B1
:2010E0006091DD147091DE148091DF149091E0149B01AC010E94A35E69A37AA38BA39CA380
:201100001092C5141092C414DF91CF9108958091C41582FF1BC0A19A80915F168C70A9F0D1
:2011200080919A0A8093BC0A80919B0A8093BB0A8091B7158250990B880F81958093BA0ABC
:2011400080916F00826080936F000895A198E4CFE0EAF0E080818F7D80830895989AE1E0E8
:20116000F1E08081806180836B9A0C94A808882361F0813061F0823061F0833061F08430AB
:2011800061F0853061F080E1089580E2089580E4089580E8089584E0089581E0089582E094
:2011A0000895882361F0813061F0823061F0833061F0843061F0853061F080E1089582E022
:2011C000089588E0089580E2089580E4089581E0089584E00895882361F0813061F08230BE
:2011E00061F0833061F0843061F0853061F080E2089584E0089580E1089580E4089580E828
:20120000089582E0089588E00895AF92BF92CF92DF92EF92FF920F931F93CF93DF93E0901F
:20122000B815F12CC090B915D12CD0E0C0E010E000E0BC2EAC2EC7010C2E02C095958795BB
:201240000A94E2F780FF04C08C2F0E94EB08082BC60102C095958795AA94E2F780FF04C028
:201260008B2D0E94D108182B2196C730D10509F700939B0A10939A0ADF91CF911F910F91D5
:20128000FF90EF90DF90CF90BF90AF9008959091980A8091990A891761F0E92FF0E0E85EB1
:2012A000F54F80819F5F903809F490E09093980A08958FEF08959091160A8091170A891726
:2012C00061F0E92FF0E0EA56F64F80819F5F903809F490E09093160A08958FEF0895E091B0
:2012E000540991E09E0F903409F490E020919509291761F0F0E0EB5AF64F80839093540985
:201300008091D10080628093D10004C02091F11424FFECCF0895E091120991E09E0F9034C2
:2013200009F490E020915309291761F0F0E0ED5EF64F8083909312098091C100806280933A
:20134000C10004C02091F11424FFECCF0895E5E0F1E080818D7F80838081816080830895AF
:20136000E5E0F1E080818E7F8083808182608083089580915F16843061F028F4882359F0A8
:20138000813009F108958031B1F0803411F08830F9F40C94B0099091D016809164169111CC
:2013A00004C09091C41594FD08C0811106C08091D516811104C00C94A7098111EACF8091C0
:2013C000D5168111E6CF809105018C7F80930501089565E676E182E597E10C9429089FB75B
:2013E000F8948091F11482608093F1149FBF08958F929F92AF92BF92CF92DF92EF92FF928E
:201400000F931F93CF93DF9300D000D000D01F92CDB7DEB76B017C01142F20E030E0A90184
:201420000E94415C87FF0EC08DE20E948B0980915316811103C08DE20E946F09F7FAF094A7
:20144000F7F8F094012F023008F054C010FF0AC020E030E040E251E4C701B6010E94A35E49
:201460006B017C0120E030E040E05FE3C701B6010E944C5B0E94BD5C9E012F5F3F4F790159
:20148000F901E10FF11D2EE2208300E02AE0822E912CA12CB12C6115710581059105B1F5F2
:2014A000F701E00FF11D80E3011708F440C0011308C0E1E0E00FEE0DFF2DF11D0E5F80E32F
:2014C00080830E0D1F2D111DE016F10699F52A960FB6F894DEBF0FBECDBFDF91CF911F9172
:2014E0000F91FF90EF90DF90CF90BF90AF909F908F90089520E030E048EC52E4C701B601FE
:201500000E94A35E6B017C0102509DCF011301C00F5F6701C00ED11CA50194010E94CC5F13
:20152000605DF6016083B901CA010F5FB4CF0F5F8193BACFF801D2908F018D2D0E948B09B8
:20154000809153168111C0CF8D2D0E946F09BCCF43E00C94F8092091C41540E020FF07C03D
:201560002BE832E441E25DE30E94A35E41E00C94F8092091C41543E020FF07C02BE832E4BE
:2015800041E25DE30E94A35E44E00C94F8098F929F92AF92BF92CF92DF92EF92FF920F9316
:2015A0001F93CF93DF9300D000D000D01F92CDB7DEB76115710581059105E1F480E30E9489
:2015C0008B0980915316811136C080E32A960FB6F894DEBF0FBECDBFDF91CF911F910F91EB
:2015E000FF90EF90DF90CF90BF90AF909F908F900C946F0900E09E012F5F3F4F79012AE0FC
:20160000822E912CA12CB12C6701C00ED11CA50194010E94CC5FF6016083B901CA010F5FBB
:20162000611571058105910579F70E0D1F2D111DE016F10699F42A960FB6F894DEBF0FBEA8
:20164000CDBFDF91CF911F910F91FF90EF90DF90CF90BF90AF909F908F900895F80182917D
:201660008F0190E3D92ED80E8D2D0E948B09809153168111DDCF8D2D0E946F09D9CFCF92F5
:20168000DF92EF92FF9297FF13C06B017C018DE20E948B0980915316811103C08DE20E94F0
:2016A0006F0966277727CB016C197D098E099F09FF90EF90DF90CF900C94C70A0F931F93D0
:2016C000CF938C01F801C491C11104C0CF911F910F9108958C2F0E948B09809153168111ED
:2016E00003C08C2F0E946F090F5F1F4FEBCFCF93DF93EC018991811103C0DF91CF9108951F
:201700000E948B09809153168111F4CFFE01319780810E946F09EECFA5E6B6E1EEECF8E051
:201720004D915D916D917D91419351936193719388E0EA3EF807A1F708952F923F924F92EA
:201740005F926F927F928F929F92AF92BF92CF92DF92EF92FF920F931F93CF93DF9300D0C6
:201760001F92CDB7DEB70091F213002309F486C009833981315039831091E00A131709F46E
:2017800066C0C32ED12CEAE33E9FC00111249C012F51354F7901F90175A086A097A0A0A4CA
:2017A00061A972A983A994A99B01AC010E944C5BF70125A936A947A950AD0E94A35EB62EF0
:2017C000E72EF82E9B83262F372F482F592F672D782D892D9A2D0E94415C87FF03C0B72CD5
:2017E0007401AB828AE38C9DF0018D9DF00D1124EF51F54F8B2D9E2DAF2DBB8181A392A3EC
:20180000A3A3B4A3F9818F2FF11101C088E2FF24FA94F80E3090F1131F1133C0131102C042
:201820000E946508EAE31E9FC00111248F51954F9A83898333243394310EF8E23F1201C0E3
:20184000312C8AE3282E031185C01093E00A0F900F900F900F90DF91CF911F910F91FF9057
:20186000EF90DF90CF90BF90AF909F908F907F906F905F904F903F902F90089528E2298382
:2018800078CF29818AE3289F900111242F51354F3C832B832AE3E22E8F2C912CFE9CC001FC
:2018A0001124FC01EF51F54FFA83E983F11002C098E2F92EFA94F31002C00E946508E89C3F
:2018C000C001E99C900D11249C012F51354F6901F90145A056A067A070A4A301920161A1BC
:2018E00072A183A194A10E94415C882339F1F60161A972A983A994A99B01AC010E944C5B51
:20190000F60125A936A947A950AD0E94A35EEB81FC8121A132A143A154A10E944C5B4B01A7
:201920005C01AC019B01C301B2010E94635EF60118165CF481A292A2A3A2B4A229813A815B
:201940003C832B831F11A8CF6DCF41A252A263A274A2F4CFC32CD12C329CC00111249C0135
:201960002F51354F7901E981FA8141A052A063A074A0F90181A092A0A3A0B4A0A5019401FB
:20198000C301B2010E94415C87FF26C0E981FA8161A972A983A994A99B01AC010E944C5B20
:2019A000E981FA8125A936A947A950AD0E94A35EA30192010E944C5B2B013C01AC019B01D3
:2019C000C501B4010E94635E181634F4F70141A252A263A274A2132D2C9CF0012D9CF00D2A
:2019E0001124EF51F54F25A136A147A150A561A172A183A194A10E94415C811101C0132D74
:201A00003394F8E23F1201C0312CFA82E9821BCF4F925F926F927F92AF92BF92CF92DF929D
:201A2000EF92FF920F931F93CF93DF936C01FB015A01A081A80FB92FB11D8C91ED018D3250
:201A400049F5229611968C9101E0512C612C10E020E030E0A9017E0190ED792E780E89E0A5
:201A6000871528F16394A8E0A615E8F051101150A5E0B0E00E9415609B01AC01220F331FE5
:201A8000441F551F270D311D411D511D2196D7018C91E1CF8B3219F0219600E0D6CF22960B
:201AA00011968C91FACF5110F1CF1F5FEFCFBEEF7B1205C0511003C055245394E7CF66207D
:201AC00009F17F01CA01B9010E94F35C2B013C0120E030E0A9010E94415C81112EC0002311
:201AE00009F448C077FA709477F87094F5014082518262827382CC19DD09C150F701C0837E
:201B000066246394862DDF91CF911F910F91FF90EF90DF90CF90BF90AF907F906F905F900A
:201B20004F9008952AE037ED43E25CE3C301B2010E94A35E2B013C011E5F1F3F9CF31F3F4C
:201B400059F42DEC3CEC4CEC5DE3C301B2010E94A35E2B013C01C3CF112309F220E030E02B
:201B600040E251E4C301B2010E94A35E2B013C011150F2CFD5014D925D926D927C9213970E
:201B8000BACFCF92DF92EF92FF92FC01208D318D428D538D64897589868997890E944B5B5F
:201BA0006B017C0190582091091630910A1640910B1650910C160E94635E1816A4F0A701E1
:201BC0009601609105167091061680910716909108160E94415C87FD08C080E0FF90EF90DF
:201BE000DF90CF90089581E0F9CF82E0F7CF8F929F92AF92BF92CF92DF92EF92FF920F93BF
:201C00001F93CF937C0107E415E1C0E0F70181909190A190B1907F016801F801248D358DC1
:201C2000468D578D5058C501B4010E94415C87FD11C00C5F1F4FF60120813181428153817C
:201C4000C501B4010E94635E181624F0CF5FC730E9F6C8E08C2FCF911F910F91FF90EF903F
:201C6000DF90CF90BF90AF909F908F900895EF92FF920F931F93CF93DF93C9B18091C4157F
:201C800086FF22C0C77FD0E0B9F010E000E0D0E0EE24E394F12C802F0E94B7088C2339F030
:201CA000C701002E01C0880F0A94EAF7D82B0F5F1F4F0730110579F78D2FDF91CF911F917F
:201CC0000F91FF90EF900895C095DCCF8AB188708AB98BB1876F8BB90895F894F999FECF45
:201CE00092BD81BD81E08FBB20B5862F8227082E000C990B50E086239523892B49F084E1B0
:201D00006F3F11F060BD84E08FBBF99A789408952617E1F360BD84E2F7CF9F92AF92BF92F0
:201D2000CF92DF92EF92FF920F931F93CF93DF935C018A017B01E40EF51EEB01912C6C0118
:201D4000C61AD70ACE018C0D9D1D21E0911007C0292D990C330B232F221F2227221F6991E7
:201D6000962E920E0E946D0ECE15DF0559F7692DC501800F911FDF91CF911F910F91FF9081
:201D8000EF90DF90CF90BF90AF909F900C946D0E63E290E080E00E946D0E49E651E063EF3A
:201DA00074E181E090E00C948D0E2DE1829FC00111244CE150E09E5F0C948D0EF999FECFA9
:201DC00092BD81BD81E08FBB80B508959F92AF92BF92CF92DF92EF92FF920F931F93CF939C
:201DE000DF935B018A017C01E40EF51EEC01912C6B01C81AD90AC6018C0F9D1F0E94DE0E81
:201E000021E0911007C0292D990C330B232F221F2227221F982E920E8993CE15DF0559F76A
:201E2000C501800F911F0E94DE0E21E030E0891511F030E020E0C901DF91CF911F910F9165
:201E4000FF90EF90DF90CF90BF90AF909F9008950F931F93CF93DF938B0191E5899FE00119
:201E60001124DD5F40E550E0BE01C8010E94E60E892B71F4F801108240E550E0B801CE01FD
:201E80000E948D0E80E0DF91CF911F910F91089581E0F9CFE2E0F1E080818F7D808308957F
:201EA0004F925F926F927F928F929F92AF92BF92CF92DF92EF92FF920F931F93CF93DF934E
:201EC000CDB7DEB768970FB6F894DEBF0FBECDBF69877A878B879C8727013801AD8ABE8A9D
:201EE000CF8AD88E840160E070E0CB010E944B5B20E030E044EB52E40E944C5B21EE3EE20D
:201F000045E652E40E944B5C6B017C010E94345F6D877E878F87988B8091ED159091EE1590
:201F2000A091EF15B091F01589839A83AB83BC83C701B6010E94465C6B017C01A3019201AD
:201F400060E070E0CB010E944B5B21EE3EE245E652E40E944B5C4B015C010E94345F698B32
:201F60007A8B8B8B9C8B8091F1159091F215A091F315B091F4158D839E83AF83B887C501F5
:201F8000B4010E94465C4B015C01A701960169817A818B819C810E94A35E6B017C01A50120
:201FA00094016D817E818F8198850E94A35E9B01AC01C701B6010E944C5B2091F515309142
:201FC000F6154091F7155091F8150E944C5B2091F9153091FA154091FB155091FC150E94DE
:201FE0004C5B6B017C0121EE3EE245E652E469857A858B859C850E944B5C4B015C010E940F
:20200000465CA70196010E94A35E2B013C0140929F165092A0166092A1167092A216C5018B
:20202000B4010E94345FA70196010E94A35E4B015C018092A3169092A416A092A516B09255
:20204000A61629813A814B815C816D857E858F8598890E94A35E6B017C012D813E814F81C3
:20206000588569897A898B899C890E94A35E9B01AC01C701B6010E944C5B2091FD1530911D
:20208000FE154091FF15509100160E944C5B209101163091021640910316509104160E94E0
:2020A0004B5B6B017C01C092A716D092A816E092A916F092AA161092AB161092AC16109286
:2020C000AD161092AE161092AF161092B0161092B1161092B2162D893E894F89588D69850D
:2020E0007A858B859C850E944C5B6093B3167093B4168093B5169093B616012B81F14092A1
:20210000B7165092B8166092B9167092BA168092BB169092BC16A092BD16B092BE16C0926B
:20212000BF16D092C016E092C116F092C2161092C3161092C4161092C5161092C61610925B
:20214000C7161092C8161092C9161092CA166093CB167093CC168093CD169093CE1668966B
:202160000FB6F894DEBF0FBECDBFDF91CF911F910F91FF90EF90DF90CF90BF90AF909F905F
:202180008F907F906F905F904F9008952F923F924F925F926F927F928F929F92AF92BF924D
:2021A000CF92DF92EF92FF920F931F93CF93DF93CDB7DEB7CC54D1090FB6F894DEBF0FBE45
:2021C000CDBF80915F1680778FAF2091DD142F873091DE14388B4091DF14498B5091E0147D
:2021E0005A8B81110C94B5198091F21321968FAF2197A091C414B091C514BA83A983B0916A
:20220000C714B98FE091C614EEA32091D0143091D1144091D2145091D3142AAB3BAB4CAB53
:202220005DAB3091E9143B874091EA144C872090EB143090EC145091E1145A8F8091E2143F
:202240008B8F9091E3149C8FA091E414AD8FB091E514BC8BE091E614ED8BF091E714FE8B53
:202260002091E8142F8B3091ED143E8F4091EE144F8F5091EF1458A38091F01489A3909176
:20228000D8149B8BA091D914AB83B091DA14BF83E091DB14ED87F091DC14FE872091CC1414
:2022A0003091CD144091CE145091CF142FA338A749A75AA73091C8143AAF4091C9144BAF35
:2022C0005091CA145CAF8091CB148DAF2091D4143091D5144091D6145091D7142EAB3FAB7B
:2022E00048AF59AF309119143EAF4091F41349AB5091F113588F8091E00A22968FAF2297C2
:202300008091F31359A9851395C08A8D9B8DAC8DBD8D8093E1149093E214A093E314B09367
:20232000E4148E8D9F8DA8A1B9A18093ED149093EE14A093EF14B093F0148B819F81AD85A7
:20234000BE858093D9149093DA14A093DB14B093DC148C899D89AE89BF898093E5149093EB
:20236000E614A093E714B093E8148F859889A989BA898093DD149093DE14A093DF14B093CA
:20238000E0148B898093D8148B859C85D1018093E9149093EA14A093EB14B093EC149EAD42
:2023A00090931914AEA1A093C614E981FA81F093C514E093C4142AA93BA94CA95DA9209380
:2023C000D0143093D1144093D2145093D314388D3093F1138AAD9BADACADBDAD8093C81431
:2023E0009093C914A093CA14B093CB148FA198A5A9A5BAA58093CC149093CD14A093CE1484
:20240000B093CF142EA93FA948AD59AD2093D4143093D5144093D6145093D714398D309381
:20242000C71449A94093F41322965FAD22975093E00A9FC0A981BA81AB2B09F0FDC22196A2
:20244000BFAD2197E88DBE13AEC08A8D9B8DAC8DBD8D8093E1149093E214A093E314B09354
:20246000E4148E8D9F8DA8A1B9A18093ED149093EE14A093EF14B093F0148B819F81AD8566
:20248000BE858093D9149093DA14A093DB14B093DC148C899D89AE89BF898093E5149093AA
:2024A000E614A093E714B093E8148F859889A989BA898093DD149093DE14A093DF14B09389
:2024C000E014FB89F093D8148B859C85D1018093E9149093EA14A093EB14B093EC142EAD91
:2024E000209319143EA13093C6141092C5141092C4148AA99BA9ACA9BDA98093D01490933F
:20250000D114A093D214B093D31421969FAD21979093F1138AAD9BADACADBDAD8093C81480
:202520009093C914A093CA14B093CB142FA138A549A55AA52093CC143093CD144093CE14E2
:202540005093CF148EA99FA9A8ADB9AD8093D4149093D514A093D614B093D714998D9093E0
:20256000C714A9A9A093F4132296BFAD2297B093E00AC45BDF4F0FB6F894DEBF0FBECDBF56
:20258000DF91CF911F910F91FF90EF90DF90CF90BF90AF909F908F907F906F905F904F9087
:2025A0003F902F900895E88D8E2F90E0FAE3EF9F90011124A9014F51554F5A834983598DA0
:2025C0005111F9C0AEA1AF5FAEA3A53009F41EA2B2E22EA1B29FF0011124E65EFB4EAAE3AC
:2025E000A89FA001A99F500D11244F51554F7A01DA018C91808311964D915D916D917C91E1
:202600001497DB01CA0123E0880F991FAA1FBB1F2A95D1F781839283A383B483D7011596F3
:202620004D915D916D917C911897DB01CA0133E0880F991FAA1FBB1F3A95D1F785839683B0
:20264000A783B087D70119964D915D916D917C911C97DB01CA0143E0880F991FAA1FBB1F4C
:202660004A95D1F781879287A387B487D7011D964D915D916D917C915097DB01CA0153E00A
:20268000880F991FAA1FBB1F5A95D1F785879687A787B08BD70151964D915D916D917C9169
:2026A0005497DB01CA0163E0880F991FAA1FBB1F6A95D1F7818B928BA38BB48BD701559633
:2026C0004D915D916D917C915897DB01CA0173E0880F991FAA1FBB1F7A95D1F7858B968B40
:2026E000A78BB08FD70159964D915D916D917C915C97DB01CA0113E0880F991FAA1FBB1F4C
:202700001A95D1F7818F928FA38FB48FD7015D966D917D918D919C9190978B019C0143E007
:20272000000F111F221F331F4A95D1F7058F168F278F30A3D9962C9121A30E94F35C6AAF64
:202740007BAF8CAF9DAFF70125A936A947A950AD0E944B5C6FA378A789A79AA79B01AC0102
:2027600060E070E080EA9FE30E944B5C6AAB7BAB8CAB9DABFFADFF2309F481C02C893D8953
:202780004E895F896C897D898E899F890E94A35ED70191966D937D938D939C939497BC89CF
:2027A000BF87ED89E88BFE89F98B2F892A8B1EAA1FAA18AE19AEE981FA8141A852A863A881
:2027C00074A8A301920160E070E080E09FE30E944B5C6B837C838D839E83A981BA81D596FD
:2027E0001C91D597D696BC91B98FE981FA81F7A9FB8BA981BA81D8960C91D8979196CD9051
:20280000DD90ED90FC909497BFADBB2309F445C0A70196010E94A35E9B01AC01612F798D0A
:202820008B89902F0E944B5B6B837F838D879E8720E030E0A9010E94415C87FFF6C0A3017B
:202840009201C301B2010E944C5B212F398D4B89502F0E94A35E9B01AC01C701B6010E94AF
:202860004B5B0E94425F6C8B7D8B8E8B9F8B198EE2E0EB8B1B821F821D861E86DDC0D70154
:2028800091966D917D918D919C9194970E94425F6F87788B898B9A8B8ACFE88DEF5FE832E4
:2028A00009F4E0E02196FFAD2197FE1709F49AC02AE32E9FF0011124EF51F54F61A172A13B
:2028C00083A194A10E94425F6C8B7D8B8E8B9F8B2C893D894E895F896C897D898E899F89A6
:2028E0000E94A35E6F83788789879A879B01AC01C701B6010E944B5B2B813C814D815E81ED
:202900000E94A35E212F398D4B89502F0E944C5B20E030E040E05FE30E94A35E6B877C8758
:202920001C0120E030E0A9010E94635E18160CF050C1212F398D4B89502F6B857C85C10106
:202940000E94415C87FF53C1A981BA819D968D909D90AD90BC90D0972F81388549855A85B2
:20296000C501B4010E944B5B2B813C814D815E810E94A35E6E8F7F8F88A399A39B01AC0120
:202980006B857C85C1010E94635E181684F5C501B4010E94425F6A8F7B8F8C8F9D8FA701CA
:2029A0009601C501B4010E94415C882309F430C1A7019601C501B4010E944B5B2B813C81C2
:2029C0004D815E810E94A35E9B01AC01612F798D8B89902F0E944B5B6B877C871C01198EF4
:2029E0001B8A48CF1C8A1D8A1E8A1F8A71CFA3019201C301B2010E944C5B2B853C85A10133
:202A00000E94A35E2F81388549855A850E944C5B0E94425F6A8F7B8F8C8F9D8FBB85BE8F96
:202A2000EC85EF8F28A239A2DACF198EF2E0FB8B1C8A1D8A1E8A1F8A5EAD452F50E058AB0A
:202A40004FA786E0849FF001859FF00D1124EB50FC4E9EA19283A981BA81D596BC912796FD
:202A6000BFAF2797E981FA81F6A92896FFAF2897A981BA81D796BC912996BFAF2997E98105
:202A8000FA81F0AD2A96FFAF2A972AA93BA94CA95DA927966FAD279728967FAD28978B2F43
:202AA0009F2F0E944B5B26966CAF7DAF8EAF9FAF269720E030E0A9010E94415C87FF06C070
:202AC00026961CAE1DAE1EAE1FAE26972B853C85A1016E8D7F8D88A199A10E94415C811101
:202AE000A0C022E02B962FAF2B9727964FAD27974AA328965FAD28975BA329968FAD29976D
:202B00008CA32A969FAD2A979DA38EE3C82E83ECD82E8EE2E82E89E3F82E412C512C320168
:202B2000A70196012BA73CA74DA75EA75B89552309F487C0513009F41AC2A981BA81D196E2
:202B40002D913D914D915C91D497C701B6010E94A35E4B015C012F85388949895A890E941C
:202B6000415C87FF45C220E030E040E05FE3C501B4010E94A35E9B01AC016F85788989894B
:202B80009A890E944B5BA70196010E94A35E9B01AC016AA17BA18CA19DA10E944B5B8B0139
:202BA0002D968FAF2D972C969FAF2C979B01AC016B817F818D859E850E94415C87FF18C274
:202BC000A50194016F85788989899A890E944B5BC9C12C892A8F3D893B8F4E894C8F5F8926
:202BE0005D8F198E1B861C86212C312CF9CE1B87898D8C872B88302E9F859A8FA889AB8FFA
:202C0000B989BC8FEA89ED8F198EF2E0FB8B32CE1B87298D2C872B88302E198E31E03B8B9F
:202C200029CE31E02B963FAF2B975FCF0AA31BA32D963FAD2D973CA32C964FAD2C974DA3BF
:202C400075CFA981BA81D1962D913D914D915C91D497C701B6010E94A35E4B015C0120E0D7
:202C600030E040E05FE30E94A35E2F85388949895A890E944C5BA70196010E94A35E9B014E
:202C8000AC016AA17BA18CA19DA10E944B5B8B012D968FAF2D972C969FAF2C972B853C8518
:202CA000A1010E94415C87FF55C12B853C85A10127966FAD279728967FAD289729968FAD49
:202CC00029972A969FAD2A970E944B5B9B01AC010E944C5B6B017C012A8D3B8D4C8D5D8D62
:202CE0006F85788989899A890E944C5B9B01AC01C701B6010E944B5C6B017C012B96BFAD3A
:202D00002B97BB8BEA8DEF87FB8DF88B2C8D298B3D8D3A8B0B851C852D962FAE2D972C9660
:202D20003FAE2C97A7019601C301B2010E944C5B2B013C012BA53CA54DA55EA50E94415C96
:202D400087FF83C1A30192016BA57CA58DA59EA50E944B5B6B017C0198012D964FAD2D977F
:202D60002C965FAD2C976B817F818D859E850E94415C87FD5BCF2FA138A549A55AA5B80161
:202D80002D968FAD2D972C969FAD2C970E94A35E6AA37BA38CA39DA30E942A5C6B017C0151
:202DA0006AAD7BAD8CAD9DAD0E942A5C4B015C01A70196010E944B5B0E94C45C6BA77CA702
:202DC0008DA79EA746E02FA538A9429FF001439FF00D1124EB50FC4E8BA59CA591838083AC
:202DE000892B09F055C1BFADBB2309F451C18A8D9B8DAC8DBD8D8093E1149093E214A093A1
:202E0000E314B093E4148E8D9F8DA8A1B9A18093ED149093EE14A093EF14B093F0148B81D4
:202E20009F81AD85BE858093D9149093DA14A093DB14B093DC148C899D89AE89BF898093CA
:202E4000E5149093E614A093E714B093E814EB89E093D8148B859C85D1018093E9149093E6
:202E6000EA14A093EB14B093EC14FEADF09319142EA12093C61449815A815093C5144093F4
:202E8000C4148AA99BA9ACA9BDA98093D0149093D114A093D214B093D314988D9093F1139A
:202EA0002FA138A549A55AA52093CC143093CD144093CE145093CF14398D3093C71449A970
:202EC0004093F4131092DD141092DE141092DF141092E0141092D4141092D5141092D61425
:202EE0001092D714C092C814D092C914E092CA14F092CB142FA138A549A55AA5C701B6010E
:202F00000E944B5CA981BA81D5966D937D938D939C93D8970E946508B88DB093E00AC45B2A
:202F2000DF4F0FB6F894DEBF0FBECDBFDF91CF911F910F91FF90EF90DF90CF90BF90AF9092
:202F40009F908F907F906F905F904F903F902F900C949D0BA50194016F85788989899A890C
:202F60000E944C5B6F87788B898B9A8BDBCE2A8D3B8D4C8D5D8DC701B6010E94A35E9B012D
:202F8000AC016AA17BA18CA19DA10E944B5B8B012D968FAF2D972C969FAF2C979B01AC013D
:202FA0006E8D7F8D88A199A10E94635E18160CF0B9CE2E8D3F8D48A159A16AA17BA18CA1D5
:202FC0009DA10E944B5B2A8D3B8D4C8D5D8D0E944B5C6B017C010E8D1F8D48A12D964FAF06
:202FE0002D9759A12C965FAF2C9782E08B8B9ACE2B813F814D855E856AA17BA18CA19DA1ED
:203000000E944B5B9B01AC010E944C5B6B017C012C893D894E895F896F85788989899A8989
:203020000E944C5B9B01AC01C701B6010E944B5C6B017C010B811F81BD852D96BFAF2D97EA
:20304000EE852C96EFAF2C976DCE26962CAD3DAD4EAD5FAD2697B8012D968FAD2D972C961E
:203060009FAD2C970E94635E18160CF084CE2EE333EC4EE259E36BA57CA58DA59EA50E947E
:203080004C5B6BA77CA78DA79EA7A301920160CE2EA93FA948AD59ADC301B2010E944C5BFC
:2030A0002B013C012AA13BA14CA15DA1C501B4010E944B5B9B01AC01C301B2010E944B5C49
:2030C0004B015C012AA13BA14CA15DA1C701B6010E944B5BA50194010E94A35E6EAB7FABCD
:2030E00088AF99AF20EC31EE44E65EE4C501B4010E94A35E0E942A5C0E94C45C603DE7E04E
:203100007E078105910508F045C046E02FA538A9429FF001439FF00D1124EB50FC4E158234
:2031200046E02FA538A9429FF001439FF00D1124EB50FC4E74836383B9A8B39496E0B91283
:2031400001C0B12C98012D964FAD2D972C965FAD2C976B817F818D859E850E94415C87FF3E
:2031600072C0C8012D96AFAD2D972C96BFAD2C97E981FA8185AB96ABA7ABB0AFFAA1FAAF35
:203180002BA12BAF3CA13CAF4DA14DAF49A94EAFB9AAB6C8603A5FE0750781059105A0F501
:2031A00026E0AFA5B8A92A9FF0012B9FF00D1124EB50FC4E31E0358346E02FA538A9429F94
:2031C000F001439FF00D1124EB50FC4E2581022E04C096958795779567950A94D2F7ABA5C5
:2031E000BCA502C0AA0FBB1F2A95E2F7B183A08361157105B1E08B07910508F491CF8FEFAB
:203200009FEF9483838398CF60344FE174078105910560F426E0AFA5B8A92A9FF0012B9FAE
:20322000F00D1124EB50FC4E32E0C5CFA6E04FA558A9A49FF001A59FF00D1124EB50FC4E87
:20324000B3E0B583B9CF20E030E0A901B8012D968FAD2D972C969FAD2C970E94635E181683
:203260000CF06BC08A8D9B8DAC8DBD8D8093E1149093E214A093E314B093E4148E8D9F8D98
:20328000A8A1B9A18093ED149093EE14A093EF14B093F0148B819F81AD85BE858093D91434
:2032A0009093DA14A093DB14B093DC148C899D89AE89BF898093E5149093E614A093E71497
:2032C000B093E8145B895093D8148B859C85D1018093E9149093EA14A093EB14B093EC1453
:2032E00089A9809319149EA19093C614A981BA81B093C514A093C4142AA93BA94CA95DA9E2
:203300002093D0143093D1144093D2145093D314388D3093F1138FA198A5A9A5BAA5809332
:20332000CC149093CD14A093CE14B093CF14998D9093C714B092F413C5CD2196EFAD219764
:20334000F88DEF1779F08F2F8F5F883209F480E0288D22963FAD2297231303C022968FAFB5
:203360002297888F1A82198211CF20E030E0A9016F85788989899A890E94415C81110C9411
:20338000F410F7C81F93CF93DF93182FEB018DE1189FB00111247E5F4CE150E0CE010E94FB
:2033A000E60E892B71F48CE1FE0111928A95E9F7BE01812F0E94D50E80E0DF91CF911F911E
:2033C000089581E0FACF4F925F926F927F928F929F92AF92BF92CF92DF92EF92FF920F93D8
:2033E0001F93CF93DF93CDB7DEB76C970FB6F894DEBF0FBECDBF182F80FF29C38AE08093B5
:20340000B71588EC8093BA151092B81588E48093B91583E68093BB158AE097EDA3E2BCE370
:203420008093BC159093BD15A093BE15B093BF158FE692E1A3E0BBE38093C0159093C115AC
:20344000A093C215B093C31581E78093C61580E090E0AAEFB3E48093C7159093C815A093CF
:20346000C915B093CA1580E090E0AAE7B5E48093CB159093CC15A093CD15B093CE158AEFA7
:2034800090E09093D0158093CF1580E090E0A0E8B0E48093D1159093D215A093D315B09370
:2034A000D4151092C51588E38093C41586E091E0A0E3B2E48093F3149093F414A093F514DF
:2034C000B093F61480E090E0A0E2B1E48093F7149093F814A093F914B093FA148093FB14B8
:2034E0009093FC14A093FD14B093FE1440E050E065E574E44093FF14509300156093011527
:203500007093021588E599E3AEE0B2E48093031590930415A0930515B09306158093071543
:2035200090930815A0930915B0930A1580930B1590930C15A0930D15B0930E154093541629
:203540005093551660935616709357168EE492EAA9ECB3E48093581690935916A0935A167E
:20356000B0935B1680E090EAACE0B6E480930F1590931015A0931115B093121580E090E87D
:20358000ABEBB4E48093131590931415A0931515B093161580E090E4ACE1B5E48093171572
:2035A00090931815A0931915B0931A1580E090E0A6E9B4E480931B1590931C15A0931D15F5
:2035C000B0931E1580E090E8ABE3B6E480931F1590932015A0932115B093221580932315A8
:2035E00090932415A0932515B09326158093271590932815A0932915B0932A1580E098ECFE
:20360000AFE2B9E480932B1590932C15A0932D15B0932E1580E098ECAFE2B8E480932F1562
:2036200090933015A0933115B09332158093331590933415A0933515B093361580E090EF6E
:20364000A2E5B8E48093371590933815A0933915B0933A1580E098ECAFEAB8E480933B15E9
:2036600090933C15A0933D15B0933E1580933F1590934015A0934115B0934215809343154E
:2036800090934415A0934515B0934615812C912C84E3A82E83E4B82E8092471590924815A2
:2036A000A0924915B0924A1580E090E0A0E1B2E480934B1590934C15A0934D15B0934E15C0
:2036C000C12CD12C24EBE22E23E4F22EC0924F15D0925015E0925115F092521540E050E626
:2036E0006AEE76E440935315509354156093551570935615412C512C31E1632E33E4732E81
:2037000040925715509258156092591570925A15412C512CE0EA6E2EE2E47E2E40925B1547
:2037200050925C1560925D1570925E15412C512CFCED6F2EF2E47F2E40925F1550926015CD
:2037400060926115709262158092631590926415A0926515B0926615812C912C0DE4A02ED1
:2037600003E4B02E8092671590926815A0926915B0926A15C0926B15D0926C15E0926D153D
:20378000F0926E1540936F1550937015609371157093721540E050E068EF72E4409373150A
:2037A0005093741560937515709376158093771590937815A0937915B0937A1540E050E060
:2037C00060E871E440937B1550937C1560937D1570937E15C12CD12C2AEFE22E22E4F22E21
:2037E000C0927F15D0928015E0928115F092821510928315109284151092851510928615DD
:2038000010928715109288151092891510928A1510928B1510928C1510928D1510928E159C
:20382000C12CD12C3BEFE32E32E4F32EC0928F15D0929015E0929115F09292158093931533
:2038400090939415A0939515B093961540939715509398156093991570939A1510929B151D
:2038600010929C1510929D1510929E1510929F151092A0151092A1151092A2151092A31594
:203880001092A4151092A5151092A6151092A7151092A8151092A9151092AA151092AB1534
:2038A0001092AC151092AD151092AE151092AF151092B0151092B1151092B2151092B315D4
:2038C0001092B4151092B5151092B6151092D5151092D6151092D7151092D8151092D915DE
:2038E0001092DA151092DB151092DC151092DD151092DE151092DF151092E0151092E11524
:203900001092E2151092E3151092E4151092E5151092E6151092E7151092E8151092E915C3
:203920001092EA151092EB151092EC1580E090E0A2E0B3E48093ED159093EE15A093EF1546
:20394000B093F01580E090E0A6E1B3E48093F1159093F215A093F315B093F41580E090E097
:20396000A4E3B2E48093F5159093F615A093F715B093F81580E090E0ACE0B2E48093F9153D
:203980009093FA15A093FB15B093FC1580E090E0ACE0B3E48093FD159093FE15A093FF15C9
:2039A000B093001688E491EEA6E6B1E48093011690930216A0930316B093041680E090E0C4
:2039C000A0E7B2E48093091690930A16A0930B16B0930C168093051690930616A0930716DF
:2039E000B093081610924A1682E380934B1610924C1682E080934D1681E080934E16109235
:203A00004F168CE1EDE0F6E1DF01982F1D929A95E9F7E9E2F6E1DF011D928A95E9F71092F9
:203A200050161092511680E090E0A0EFB1E48093451690934616A0934716B0934816109263
:203A4000491610925216109253160E94C80E11FF10C0FE0131967F018CE1DF011D928A9539
:203A6000E9F700E0B701802F0E94D50E0F5F0830C9F712FF0AC060E080E093E00E946D0E29
:203A800060E081E593E00E946D0E13FF05C060E08EEA93E00E946D0E6C960FB6F894DEBFE1
:203AA0000FBECDBFDF91CF911F910F91FF90EF90DF90CF90BF90AF909F908F907F906F90C7
:203AC0005F904F900895EEECF8E08CE3DF011D928A95E9F71092F1131092F21381E080930B
:203AE000A9081092E00A0895CF92DF92EF92FF92CF93DF93C82F6A017B0120E030E0A9019C
:203B0000CB01B6010E94415C87FF57C0C23269F087ED8C0F833048F082ED8C0F833028F02A
:203B20008BEC8C0F823008F0E5C2C701B6010E94865F0E94C45CC73308F0DEC2EC2FF0E0DD
:203B40008827EA55F24E8F4F0C940D606D1E741E771E7C1E7F1E891E911E7C207C207C2039
:203B6000991E9C1EA51EAE1E7C207C207C207C207C207C20B61EC01ECC1ED41ED71EE01E1C
:203B8000E91EEF1EF81EFB1E041F0D1F161F1F1F281F311F341F371F3A1F3D1F401F431F6A
:203BA0004C1F551F5E1F651F981FA11FAA1FB31FBC1F6220652068207120C43608F4B5CF9E
:203BC000C45680E0C73008F07FC02C2F30E0833009F462C040F58130E9F1823009F442C08F
:203BE000C33061F48091511681112BC0C0925416D0925516E0925616F0925716220F331FAF
:203C0000220F331FF901ED50FB4EC082D182E282F3820E94C80E80E0DF91CF91FF90EF907D
:203C2000DF90CF900895853009F446C0E8F18630B9F6220F331F220F331FF901E556FA4EA0
:203C4000E4CFC0925816D0925916E0925A16F0925B16D4CF220F331F220F331FF901E15F68
:203C6000FA4ED3CF220F331F220F331FE901C55DDA4E20E030E040E752E4C701B6010E9492
:203C8000A35E20E030E040E752E40E94A35E688379838A839B83BDCF220F331F220F331F6F
:203CA000F901E95BFA4EB1CF220F331F220F331FF901ED59FA4EA9CF220F331F220F331FF2
:203CC000F901E158FA4EA1CF8F5FCA3008F414C2873009F411C2CA5075CF86E0633008F465
:203CE0009BCF6093B71595CF6093BA1592CF6093B8150E9405098DCF6093B915FACF8091AD
:203D0000C415662321F084608093C41582CF8B7FFBCF8091C415662311F08064F5CF8F7B15
:203D2000F3CF8091C415662311F08068EDCF8F77EBCF6093BB156DCFC092BC15D092BD1593
:203D4000E092BE15F092BF1564CFC092C015D092C115E092C215F092C3155BCF8091C4157F
:203D6000662311F08160D0CF8E7FCECF8091C415662321F084FFC2C18062C6CF8F7DC4CFEF
:203D80008091C415662331F088608093C4150E94660E3FCF877FF9CF8091C415662311F055
:203DA0008063B2CF8F7CB0CF6093C61532CFC092C715D092C815E092C915F092CA1529CF30
:203DC000C092CB15D092CC15E092CD15F092CE1520CF70E07093D0156093CF151ACFC0927C
:203DE000D115D092D215E092D315F092D41511CF6093C5150ECFC092ED15D092EE15E0921A
:203E0000EF15F092F01505CFC092F115D092F215E092F315F092F415FCCEC092F515D092F5
:203E2000F615E092F715F092F815F3CEC092F915D092FA15E092FB15F092FC15EACEC092B9
:203E4000FD15D092FE15E092FF15F0920016E1CEC0920116D0920216E0920316F092041604
:203E6000D8CE60934A16D5CE60934B16D2CE60934C16CFCE60934D16CCCE60934E16C9CEE2
:203E800060934F16C6CEC0921D16D0921E16E0921F16F0922016BDCEC0922116D09222160E
:203EA000E0922316F0922416B4CEC0922516D0922616E0922716F0922816ABCEC701B60187
:203EC0000E94C45C60935016A4CEC701B6010E94C45C6093511620E030E0A901C701B60181
:203EE0000E94415C811111C08091541690915516A0915616B09157168093FF149093001570
:203F0000A0930115B093021584CE20E030E040E85FE3C701B6010E94415C81117ACE809189
:203F2000581690915916A0915A16B0915B16E4CFC0923916D0923A16E0923B16F0923C1693
:203F400068CEC0923D16D0923E16E0923F16F09240165FCEC0924116D0924216E0924316D6
:203F6000F092441656CEC0924516D0924616E0924716F09248164DCE60934916623009F42B
:203F80005EC018F5662309F441C0613009F041CE1092391610923A1610923B1610923C160C
:203FA00010923D1610923E1610923F161092401680E090E0ACE0B2E4809341169093421650
:203FC000A0934316B093441624CE643009F465C008F44EC0653009F01CCE80E090E0A0E935
:203FE000B1E48093391690933A16A0933B16B0933C1610923D1610923E1610923F161092BA
:20400000401680E090E0A0EEB1E4D6CF1092391610923A1610923B1610923C1610923D16F3
:2040200010923E1610923F161092401610924116109242161092431610924416EACD80E09A
:2040400090E0A0E4B1E48093391690933A16A0933B16B0933C1610923D1610923E1610925C
:204060003F161092401680E090E0A4E6B2E4A4CF1092391610923A1610923B1610923C16C6
:2040800010923D1610923E1610923F161092401680E090E0A0E7B2E48FCF10923916109268
:2040A0003A1610923B1610923C1610923D1610923E1610923F161092401680E090E0A8E493
:2040C000B2E47ACF60935216A4CD60935316A1CDC0920516D0920616E0920716F092081651
:2040E00098CDC0920916D0920A16E0920B16F0920C168FCD84E090CD83E08ECD8AE08CCD93
:20410000CF92DF92EF92FF920F931F93CF93DF93CDB7DEB7362F142FCDB6DEB64DB75EB7A2
:20412000411B51090FB6F8945EBF0FBE4DBF4F5F5F4F7A01242FFA01632F0E94AC5F9193FA
:204140009E2F921B9117C0F3F701E10FF11D31970081005D802F0E948B09809153168111FD
:2041600003C0802F0E946F09115071F70FB6F894DEBE0FBECDBEDF91CF911F910F91FF90F6
:20418000EF90DF90CF90089541E08A3020F043E0843608F442E06AE00C948020CF93C82F6C
:2041A0008A3009F45FC038F5853009F44FC0C8F4823009F445C060F485EE9FE0C13071F033
:2041C00080EA9DE00E945E0B8C2F0E94C42033C08330C9F189E99FE0C43091F70E945E0BD4
:2041E0002AC08730C9F1A8F18830C9F182E19FE0C930A1F3E5CF8631F1F178F48D30A9F1DA
:2042000028F48DED9EE0CB3049F3DACF843181F181EA9EE0C53111F3D3CF863279F138F4B0
:20422000823291F18DEB9DE0C332C1F2C9CF873241F1823429F68DE99DE0CF910C945E0BF7
:2042400089EC9FE0CBCF8DEA9FE0C8CF8EE79FE0C5CF85E69FE0C2CF8AE39FE0BFCF87E25D
:204260009FE0BCCF85EF9EE0B9CF82EC9EE0B6CF82E89EE0B3CF83E69EE0B0CF8CE29EE08D
:20428000ADCF86EF9DE0AACF8AED9DE0A7CF811108C080916416811106C087E090E10C9418
:2042A0005E0B0C94CE200895EAE3F7E18DE8DF011D928A95E9F76AE877E180E00E94C2193B
:2042C000811103C087E00C94CE2008958F929F92AF92BF92CF92DF92EF92FF920F931F93DB
:2042E000CF93DF93CDB7DEB7E8970FB6F894DEBF0FBECDBF8CE1E5E6F6E1DE0111960190E5
:204300000D928A95E1F780915F16843009F4FBC008F0D1C0813009F4F9C008F4DEC08230D9
:2043200009F4F7C08091BB15837039F0BE016F5F7F4FCE014D960E9429088091BB1580FF8C
:2043400049C084E59DE00E945E0B7E018DE1E80EF11C10E0F70161917191819191917F01E3
:204360000E94B90A163021F082E59DE00E945E0B1F5F173079F78FE29DE00E945E0BAD8C2B
:20438000BE8CCF8CD8A0EDA8FEA80FA918AD29A93AA94BA95CA96DA57EA58FA598A9882444
:2043A0008394912C0E94500FF7EBEF2EF6E1FF2E10E0F70161917191819191917F010E94F3
:2043C000B90A153021F08DE29DE00E945E0B1F5F163079F78091BB1585FF18C082E29DE07B
:2043E0000E945E0B609145177091461790E080E00E94C70A86E19DE00E945E0B6091471786
:204400007091481790E080E00E94C70A8091BB1586FF08C088E09DE00E945E0B8091C617ED
:204420000E94C4208091BB1582FF0EC082E09DE00E945E0B8091F2139091F113891708F405
:204440006EC0891B0E94C4208091BB1583FF0EC08DEF9CE00E945E0B9091160A8091170A5D
:20446000891708F45EC0891B0E94C4208091BB1584FF0AC087EF9CE00E945E0B0E94370E46
:2044800047E062E00E94802083EF9CE00E945E0BE8960FB6F894DEBF0FBECDBFDF91CF91E3
:2044A0001F910F91FF90EF90DF90CF90BF90AF909F908F900895803119F150F4883009F0A7
:2044C00031CF80916416811118C08BE89DE00FC0803211F18034A9F325CF8091D0168111A7
:2044E00004C08091C41584FD05C087E99DE00E945E0B18CF80E99DE0FACF85E89DE0F7CF8A
:204500008FE79DE0F4CF89E79DE0F1CF82E79DE0EECF8BE69DE0EBCF85E69DE0E8CF885D69
:2045200090CF8058A0CF8F929F92AF92BF92EF92FF920F931F93CF938DEE9CE00E945E0B27
:2045400081E8E82E86E1F82E03EF14E1C0E0F70161917191819191917F01F80181909190FD
:20456000A190B1908F010E94F55CA50194010E944B5C0E94B90AC63021F08BEE9CE00E94BF
:204580005E0BCF5FC73019F789EE9CE00E945E0B80919D160E94C42085EE9CE0CF911F9136
:2045A0000F91FF90EF90BF90AF909F908F900C945E0B48E062E00C948020FF920F931F93D9
:2045C000CF93DF9381EE9CE00E945E0B8091B7150E94C42088EC9CE00E945E0B8091BA15D3
:2045E0000E94C4208AEA9CE00E945E0B8091B8150E94C42081E99CE00E945E0B8091B81507
:204600000E94D9228AE89CE00E945E0B8091B9150E94C42082E79CE00E945E0B8091B915D0
:204620000E94D9228BE69CE00E945E0B8091C41582FB882780F90E94C4208AE49CE00E9444
:204640005E0B8091C41586FB882780F90E94C4208AE29CE00E945E0B8091C415881F8827A5
:20466000881F0E94C4208AE09CE00E945E0B8091BB150E94C42084EF9BE00E945E0B8091AB
:20468000BB150E94D9228CEE9BE00E945E0B6091BC157091BD158091BE159091BF150E949D
:2046A000A80A8CEC9BE00E945E0B6091C0157091C1158091C2159091C3150E94A80A81EB0C
:2046C0009BE00E945E0B8091C41581700E94C42084E99BE00E945E0B8091C41585FB8827E7
:2046E00080F90E94C42089E79BE00E945E0B8091C41583FB882780F90E94C4208EE59BE0C1
:204700000E945E0B8091C415829581700E94C42082E49BE00E945E0B8091C6150E94C420B8
:2047200088E29BE00E945E0B8091C6150E94D92280E29BE00E945E0B6091C7157091C8156D
:204740008091C9159091CA150E94A80A83E09BE00E945E0B6091CB157091CC158091CD1587
:204760009091CE150E94A80A86EE9AE00E945E0B8091CF150E94C42087EC9AE00E945E0B75
:204780006091D1157091D2158091D3159091D4150E94A80A8AEA9AE00E945E0B8091C5151F
:2047A0000E94C4208CE89AE00E945E0B8091C5150E94D92283E79AE00E945E0B8EE69AE015
:2047C0000E945E0B6091ED157091EE158091EF159091F0150E94A80A80E59AE00E945E0B5E
:2047E0006091F1157091F2158091F3159091F4150E94A80A82E39AE00E945E0B6091F5153E
:204800007091F6158091F7159091F8150E94A80A84E19AE00E945E0B6091F9157091FA15F4
:204820008091FB159091FC150E94A80A88EF99E00E945E0B6091FD157091FE158091FF159A
:20484000909100160E94A80A8AED99E00E945E0B609101167091021680910316909104164C
:204860000E94A80A8EEB99E00E945E0B80914A160E94C4208CE999E00E945E0B80914B1685
:204880000E94C4208BE799E00E945E0B80914C160E94C4208AE599E00E945E0B80914D163C
:2048A0000E94C4208AE399E00E945E0B80914E160E94C4208CE199E00E945E0B80914F161F
:2048C0000E94C4208BEF98E00E945E0B60911D1670911E1680911F16909120160E94A80A0B
:2048E00089EE98E00E945E0B609121167091221680912316909124160E94A80A87ED98E078
:204900000E945E0B609125167091261680912716909128160E94A80A85EC98E00E945E0B2E
:20492000809150160E94C42088EA98E00E945E0B809151160E94C4208091511681119DC020
:204940008BE998E00E945E0B86E698E00E945E0B6091391670913A1680913B1690913C160B
:204960000E94A80A8FE498E00E945E0B60913D1670913E1680913F16909140160E94A80A23
:2049800088E398E00E945E0B609141167091421680914316909144160E94A80A81E298E074
:2049A0000E945E0B609145167091461680914716909148160E94A80A83EF97E00E945E0B0E
:2049C000809149160E94C4208FE897E00E945E0B809152160E94C42080E797E00E945E0B00
:2049E000809153160E94C4208FE497E00E945E0B89E497E00E945E0B6091051670910616AA
:204A000080910716909108160E94A80A8BE197E00E945E0B85E197E00E945E0B60910916EF
:204A200070910A1680910B1690910C160E94A80A87EE96E00E945E0B84E6F82EC0E003EF74
:204A400014E1D0E08FEF8D0F823008F488C085EE96E00E945E0B8D2F8F0D0E94C42083EE5E
:204A600096E00E945E0BC33009F445C048F4C130D9F0C230A1F1F80112C08BE898E062CF5F
:204A8000F801E457FF4FC53051F0F801E059FF4FC53028F0F801E855FF4FC63061F760811E
:204AA00071818281938105C0F801648D758D868D978D0E94A80A80EE96E00E945E0B88ED4D
:204AC00096E0D33041F1D8F48CED96E0D13019F18AED96E0D230F9F08EED96E01CC020E0C0
:204AE00030E041E655E4F80160AD71AD82AD93AD0E944B5CDECFF801EC5AFF4FD0CF84ED20
:204B000096E0D53041F086ED96E0D53020F082ED96E0D63009F70E945E0B83E996E0C33020
:204B2000C1F058F485EB96E0C13099F084EA96E0C23079F087EC96E00CC082E796E0C53050
:204B400041F082E896E0C53020F082E596E0C63089F70E945E0B8EE496E00E945E0BDF5FB0
:204B60000C5F1F4FD73009F06DCFFAE0FF0ECF5F8AEAF81264CFDF91CF911F910F91FF90AB
:204B800008952F923F924F925F926F927F928F929F92AF92BF92CF92DF92EF92FF920F9398
:204BA0001F93CF93DF93CDB7DEB7C059D1090FB6F894DEBF0FBECDBF6C01E4964FAFE497BC
:204BC000E5965FAFE597E6966FAFE697172FC057DF4F2883C059D040C357DF4F0883CD5862
:204BE000D0402091F213C058DF4F2883C058D040222E312C3AE3239FF0011124EF51F54FA0
:204C0000158E168E178E10A215AA16AA17AA10AE108289E996E7A6E9BEE781AB92ABA3AB8C
:204C2000B4AB0111C1C311AE7E015DE1E50EF11C8CE1F70111928A95E9F78AE3829DF0017F
:204C4000839DF00D1124EF51F54F81AD811108C08CE1EEECF8E0D70101900D928A95E1F7D8
:204C60006EEC78E0CE018B5A9F4F0E942908E796CFAEE797E896DFAEE89723EF34E1CF57BE
:204C8000DF4F39832883C158D040AE014F5F5F4FEC965FAF4EAFEC97C957DF4FF982E88208
:204CA000C758D0408AE3C058DF4F5881C058D040589F90011124F901EE51F54FC757DF4F8B
:204CC000F983E883C958D0409E01275C3F4FC258DF4F39832883CE57D0404AEA58E0EE9638
:204CE0005FAF4EAFEE97C557DF4F39832883CB58D040E3EFF4E1CD57DF4FF983E883C35845
:204D0000D04000E0829D9001839D300D1124A9014F51554FE3965FAF4EAFE397435E5F4F26
:204D2000C257DF4F59834883CE58D040E3968EAD9FADE397C596EA969FAF8EAFEA97E89670
:204D4000EEADFFADE8976191719181919191E896FFAFEEAFE897CD57DF4FE881F981C358CD
:204D6000D04081909190A190B190CD57DF4FF983E883C358D040A50194010E94A35E0E949B
:204D8000705E2B013C01EC96EEADFFADEC974192519261927192EC96FFAFEEAFEC97C95774
:204DA000DF4FE881F981C758D04081919191A191B191C957DF4FF983E883C758D040A30103
:204DC0009201281B390B4A0B5B0BCA01B90197FF07C022273327A901261B370B480B590B95
:204DE000C757DF4FE881F981C958D0402193319341935193C757DF4FF983E883C958D040BF
:204E0000C257DF4FE881F981CE58D040C080D180E280F380C216D306E406F50610F46901C8
:204E20007A01C257DF4FE881F981CE58D040C082D182E282F3820E94F55CA50194010E9459
:204E40004B5C4B015C01C557DF4FE881F981CB58D04081929192A192B192C557DF4FF98330
:204E6000E883CB58D04045284628472831F021E0EE96EEADFFADEE97218320E030E0A9017A
:204E8000C501B4010E94415C87FF10C0802F0E94D108E396EEADFFADE3979081892B8083D6
:204EA0002FEFEE96EEADFFADEE972183A5019401C501B4010E94A35EEA96EEADFFADEA973F
:204EC00020813181428153810E944C5BEA96EEADFFADEA9760837183828393830F5FEE9673
:204EE0002EAD3FADEE972F5F3F4FEE963FAF2EAFEE97073009F023CF0E94425F4B015C0168
:204F0000EA96EEADFFADEA9780829182A282B382CD28CE28CF2809F42DC220E030E0A90153
:204F2000E4966FADE497E5967FADE597E6968FADE697912F0E94415C87FD39C2C057DF4F45
:204F4000F881C059D040FF23C1F0A5019401E4966FADE497E5967FADE597E6968FADE69738
:204F6000912F0E94A35EE4966FAFE497E5967FAFE597E6968FAFE697192F20E030E040E8DF
:204F80005FE3E4966FADE497E5967FADE597E6968FADE697912F0E94415C87FF0BC0E4969C
:204FA0001FAEE497E5961FAEE59720E8E6962FAFE6971FE3A501940160E070E080E89FE34F
:204FC0000E944B5CCD57DF4F688379838A839B83C358D0408EEC98E0EE969FAF8EAFEE9773
:204FE000C258DF4FE881F981CE57D0407C96C957DF4FF983E883C758D040C12CD12C76017A
:205000002AE3229DC001239D900D11249C012E5E344FE8963FAF2EAFE897C258DF4FE8814C
:20502000F981CE57D04081909190A190B190C258DF4FF983E883CE57D04020E030E0A901FF
:20504000C501B4010E94415C882309F4C6C0CD57DF4F288139814A815B81C358D040C5011B
:20506000B4010E94A35E2B013C01C258DF4FE881F981CE57D04034974082518262827382D6
:20508000AC019B0160E070E080E89FE30E944B5C4B015C01E894B7F8CF57DF4FE881F981F9
:2050A000C158D040248D358D468D578DC501B4010E94A35EE2966FAFE297E9967FAFE99743
:2050C000082FEB969FAFEB97E4962FADE497E5963FADE597E6964FADE697512F0E94635EBC
:2050E000181694F0E296FFADE297E496FFAFE497E9962FADE997E5962FAFE597E6960FAFD4
:20510000E697EB961FADEB97E896EEADFFADE897F081E296FFAFE297E896EEADFFADE897AB
:20512000F181E996FFAFE997E896EEADFFADE8970281F381EB96FFAFEB97CF57DF4FE881A7
:20514000F981C158D04020AD31AD42AD53ADC501B4010E94A35E4B015C019B01AC01E2968A
:205160006FADE297E9967FADE997802FEB969FADEB970E94415C87FD0AC0E2968FAEE297B6
:20518000E9969FAEE9970A2DEB96BFAEEB97E2968FADE297E9969FADE997A02FEB96BFADE8
:2051A000EB97E896EEADFFADE89780839183A283B383EE96EEADFFADEE97248D358D468D21
:2051C000578DC301B2010E94A35E9B01AC01C701B6010E944B5B6B017C01EE962EAD3FAD8D
:2051E000EE972C5F3F4FEE963FAF2EAFEE97CF57DF4F48815981C158D0404C5F5F4FCF579E
:20520000DF4F59834883C158D040C957DF4F88819981C758D040C258DF4FE881F981CE57A0
:20522000D0408E179F0709F0F8CE8091F113C058DF4FF881C058D040F813C7C08AE3829D3A
:20524000F001839DF00D1124EF51F54F11A212A213A214A211A612A613A614A6E4962FAD7D
:20526000E497E5963FADE597E6964FADE697512FE4966FADE497E5967FADE597E6968FAD6F
:20528000E697912F0E94A35E7B018C018AE3829DF001839DF00D1124EF51F54FC701D80131
:2052A00085A796A7A7A7B0ABB1A4C2A4D3A494A4609006097090070980900809A090090900
:2052C0009301482D5A2DB701C8010E94415C87FF03C03701802EA12E9301482D5A2D6B2D58
:2052E0007C2D8D2D992D0E94415C87FD04C0B62CC72CD82C9A2C8AE3829DF001839DF00DC5
:205300001124EF51F54F8B2D9C2DAD2DB92D85A396A3A7A3B0A78CE1FE01F996AAEEB8E066
:2053200001900D928A95E1F7C701D8018093060990930709A0930809B0930909C357DF4F6F
:205340002881CD58D040211109C08CE1FE013196AEECB8E001900D928A95E1F78091A90826
:205360008093F2138F5F883209F480E08093A9080E949D0BC057DF4F0FB6F894DEBF0FBE02
:20538000CDBFDF91CF911F910F91FF90EF90DF90CF90BF90AF909F908F907F906F905F90AC
:2053A0004F903F902F90089581E081AF3DCC39E9E4963FAFE49746E7E5964FAFE59756E9E3
:2053C000E6965FAFE6971EE7F5CD2FEE3FEF4FE75FE3C701B6010E94635E18164CF48AE37F
:2053E000829DF001839DF00D1124EF51F54F32CF2FEE3FEF4FE75FEBC701B6010E94635E19
:20540000181644F08FEEC82EDD24DA948FE7E82E8FEBF82EA701960160E070E080E89FE363
:205420000E944B5B20E030E040E05FE30E94A35E0E94425F6B017C018AE3829DF001839D46
:20544000F00D1124EF51F54F2091BC153091BD154091BE155091BF1561A972A983A994A99A
:205460000E94A35EA70196010E94A35E4B015C01A701960160E070E080E89FE30E944B5BFD
:205480009B01AC01C501B4010E944B5C6B017C0120E030E0A9010E94415C87FF03C0C12CE7
:2054A000D12C76018AE3829DF001839DF00D1124EF51F54FC1A6D2A6E3A6F4A6CFCE0197EE
:2054C00008F40895EFE9FFE03197F1F700C00000F6CF80916F008D7F80936F0080918100A7
:2054E000887F81608093810010929C0A8091BA158F3F21F490915D16992391F090915F16BE
:20550000943071F090E00E945F2A81E09091C41592FF02C091E08927882321F0A19A089568
:2055200080E0F4CFA19808950E94692AE6ECF4E18BE2DF011D928A95E9F7EDE9FAE083E484
:20554000DF011D928A95E9F71092C5141092C4141092F3131092191481E08093F413109234
:205560009C0A0E94050992B180919B0A8A7A9575892B82B998B180919B0A84759B7A892B1E
:2055800088B992B180919A0A85759A7A892B82B998B180919A0A8A72957D892B88B9089537
:2055A0008091F11484FD21C09FB7F8948091F11480618093F1149FBF0E94A8080E944A0FD7
:2055C00080915F16982F9C7021F490916116913061F49FB7843069F4F89480915D16806256
:2055E00080935D169FBF0E94692A1092D5160C94B909F89480915D168860F2CF843009F439
:2056000074C0CCF48230B9F1833009F469C087E396E00E945E0B8091D31684FF22C08EE2A7
:2056200092E00E94770B8AE795E00E945E0B84EF91E00C945F2A863009F45DC00CF458C0EE
:20564000873029F78EEE95E00E945E0B8091D416813009F43FC0823009F43FC088E492E043
:2056600022C085FF03C082E392E0DBCF86FFDBCF86E392E0D6CF80E296E00E945E0BE0917D
:20568000D216E73058F7F0E08827E65BF44D8F4F0C940D60512B582B5B2B5E2B612B642BA7
:2056A000672B8AE392E00E94770B8AEA92E0B9CF8CE392E0F8CF8EE392E0F5CF80E492E0C2
:2056C000F2CF82E492E0EFCF84E492E0ECCF86E492E0E9CF8EE492E0E6CF81E792E0E3CF25
:2056E00080ED95E00E945E0B9ECF8AEB95E0FACF83EA95E0F7CF8DE795E0F4CF9F92AF92D7
:20570000BF92CF92DF92EF92FF920F931F93CF93DF93D1E005E616E18CE1C82E98E0B92ED7
:2057200020E1D22E30E4A32E41E1E42E49E0F42EC0915D16CC23A1F1D0935F1681E0C1FDC8
:205740000CC082E0C2FD09C083E0C3FD06C084E0C4FD03C0C5FF03C085E00E94FE2AC0FF4D
:2057600018C083E495E00E945E0B81E395E00E945E0B8BED94E00E945E0B9FB7F89480919C
:20578000F1148F7E8093F1149FBF8091F11484FFFCCF8FB7F89490915D1610925D168FBF54
:2057A000C091F114CC2309F4B4C0C4FF0FC081E080935E16DF91CF911F910F91FF90EF908B
:2057C000DF90CF90BF90AF909F900895C0FF0AC00E9466219FB7F8948091F1148E7F8093D7
:2057E000F1149FBF8C2F8876982E71F180915F16882349F0982F9C77F9F0883021F40E94C9
:205800006508D093611680915F16811103C092E090936116C6FF09C0883011F4A0925F1668
:2058200080916116886080936116C3FF05C080915F1685FFD0925F169FB7F8948091F1140E
:2058400087798093F1149FBFC1FF47C091103DC080915F16882331F08075B9F180916116F4
:2058600081FF33C08091611682FF18C080914317882321F080EA9FE00E945F2A809142172F
:20588000882361F0823009F09CC08091020180628093020188EE93E00E945F2A9091F213BF
:2058A0008091F113981709F48FC08091611683FD8BC0B0925F160E94C6100E948708809114
:2058C0005F1680936016109261169FB7F8948091F1148D7F8093F1149FBFC2FF1AC080918B
:2058E0005F16807309F49AC08091611682FF04C00E94A8080E944A0F809161168260809352
:2059000061169FB7F8948091F1148B7F8093F1149FBF80915F168C7711F00E94C610809185
:205920005F16803229F48091611681FDD0925F168091DD16882309F43FC01092DD16EAE03C
:20594000F9E080E09191890FEE16FF06D9F790911109981368C080910E098093DA16809131
:205960000F098093DB16809110098093DC168DE695E00E945E0B6091DA1670E090E080E0E8
:205980000E943F0B8BE695E00E945E0B6091DB1670E090E080E00E943F0B8BE695E00E94B4
:2059A0005E0B6091DC1670E090E080E00E943F0B88E695E00E945E0B809161168111B8CE01
:2059C000F9CE0E944A0F66CF10925F1680916016883031F480914F16813011F40E94662100
:2059E00080916216813091F41092621610926416F8018C2D11928A95E9F70E948C0B109283
:205A0000CF160E94631D80E00E94472180916316813009F054CF1092631651CF109261166A
:205A200010925F166ECF85E495E0C4CF0E94EF090E94EF090E94B9090E947E2B80915E1639
:205A400081110AC09091F2138091F1139813F0CF80915F16883061F30895CF92DF92EF92C3
:205A6000FF92CF93C82F6A017B0180915F16823009F454C00E94EF090E94162DC11107C0F4
:205A8000CF91FF90EF90DF90CF900C94A80883E28093A0008091A100807E8A618093A10013
:205AA0008FEF9FEF9093A9008093A80020E030E0A901C701B6010E94415C18160CF720E0AA
:205AC00030E0A901C701B6010E94415C87FD2CC020E030E04AE754E4C701B6010E94635E83
:205AE000181634F4C12CD12C8AE7E82E84E4F82E2CEE31E143E852E4C701B6010E94A35EA2
:205B000020E030E040E05FE30E944C5B0E94305D0E94C45C7093AB006093AA00CF91FF909F
:205B2000EF90DF90CF900895C12CD12C7601E0CF2F923F924F925F926F927F928F929F92A3
:205B4000AF92BF92CF92DF92EF92FF920F931F93CF93DF93CDB7DEB7A6970FB6F894DEBF63
:205B60000FBECDBF7C012A013B01922E802E1091DF168091D016811120C08091C41584FF0E
:205B80001CC086E00E94FE2AA6960FB6F894DEBF0FBECDBFDF91CF911F910F91FF90EF9048
:205BA000DF90CF90BF90AF909F908F907F906F905F904F903F902F90089580916316811118
:205BC00020C08091621681111CC08091D116811118C08091C41585FF14C0C7010E94F70DDC
:205BE0008093D216883011F082E0CCCFC7010E94C10D882321F08093D41687E0C3CF109268
:205C0000D41600915F16023009F4BECF612F70E090E080E00E94F55C20E030E048EC52E4BB
:205C20000E944B5CA30192010E94A35E2B013C018110A5C0043009F4A2C022EB38E03CA34B
:205C40002BA3870143EF54E15EA34DA38EEC98E098A38F8FEBEAF8E0FAA3E9A31701FCE180
:205C60002F0E311C1D8EEBA1FCA11192119211921192FCA3EBA3F8016191719181919191EC
:205C80008F01EDA1FEA12191319141915191FEA3EDA30E94A35E0E94705EEF8DF8A1219114
:205CA000319141915191F8A3EF8F5B016C01A21AB30AC40AD50AB601A501141615061606A8
:205CC00017060CF46BC081E090E0A0E0B0E0452B462B472B19F480E090E0DC019C01AD0143
:205CE00066277727CB01621B730B840B950BE9A1FAA12191FAA3E9A3222349F16115710518
:205D00008105910521F1022E000C330B440B550B6217730784079507D1F0CBA0DCA0F4E096
:205D2000CF1AD1080E94F55C9B01AC01EDA1FEA1EC55FF4F60817181828193810E94A35E1C
:205D4000F6016083718382839383F1E0FD8F0215130509F088CFAD8CAA2089F08CE1E2EBC8
:205D6000F8E0DE01119601900D928A95E1F701E0292DB301A201CE0101960E94982D0E94A1
:205D80007E2B80915E168111FFCE9091F1138091A908981308C00E94EF09F1CF61E070E031
:205DA00080E090E0A4CF082D292DB301A201C7010E94C125E9CE8F929F92AF92BF92EF9252
:205DC000FF920F93CF93DF93CDB7DEB7E8970FB6F894DEBF0FBECDBFB82ECE0101967C0114
:205DE0008CE1F70111928A95E9F765E676E1CE014D960E9429086091C51570E0F70150E032
:205E000040E030E020E08B2D90E0DC01022E02C0B595A7950A94E2F7A0FF22C0DA01A25A06
:205E2000B94E17961D921D921D921C921A97DA01A158BA4E8D909D90AD90BC90DB01022E87
:205E400002C0B595A7950A94E2F7A0FF04C0B7FAB094B7F8B09480829182A282B38207C003
:205E60002230310541F519861A861B861C862F5F3F4F34964C5F5F4F2730310531F681E08E
:205E80008093621600E020E040E050E060E87FEBC7010E94982DE8960FB6F894DEBF0FBE2D
:205EA000CDBFDF91CF910F91FF90EF90BF90AF909F908F900895ADE1B0E0AC0FBD1FA40FF7
:205EC000B51F8D909D90AD90BC90C5CF8F929F92AF92BF92EF92FF920F93CF93DF93CDB797
:205EE000DEB7E8970FB6F894DEBF0FBECDBFB82ECE0101967C018CE1F70111928A95E9F777
:205F000065E676E1CE014D960E9429086091C51570E0F70150E040E030E020E08B2D90E0BF
:205F2000DC01022E02C0B595A7950A94E2F7A0FF42C0DA01A25AB94E17961D921D921D925C
:205F40001C921A97DA01A158BA4E8D909D90AD90BC90DB01022E02C0B595A7950A94E2F768
:205F6000A0FF04C0B7FAB094B7F8B09480829182A282B3822F5F3F4F34964C5F5F4F2730D2
:205F8000310571F600E020E040E050E060E87FEBC7010E94982DE8960FB6F894DEBF0FBE1A
:205FA000CDBFDF91CF910F91FF90EF90BF90AF909F908F900895ADE1B0E0AC0FBD1FA40FF6
:205FC000B51F8D909D90AD90BC90D0CF2F923F924F925F926F927F928F929F92AF92BF9221
:205FE000CF92DF92EF92FF920F931F93CF93DF93CDB7DEB7E2970FB6F894DEBF0FBECDBFBC
:2060000090915E16911114C11E012DE1220E311C510110E000E0C12CD12C7601482F50E0A0
:206020005FA34EA3802F0E94EB08F50181935F018EA19FA1002E02C0959587950A94E2F7A3
:2060400080FF10C020E030E046E154E4C701B6010E94635E181634F0C12CD12C86E1E82EE7
:2060600084E4F82E0F5F1F4F07301105D9F64090CB155090CC156090CD157090CE15F4E0A0
:20608000F8A7BB24B39465E676E1CE0101960E9429088091C615282F30E03AAB29ABAE01A5
:2060A0004F5F5F4F4A018EE596E19AA789A79CA78BA73DA22CA200E010E0A12C62E081E07C
:2060C000A701960150582DA73EA74FA758AB2CA13DA1221933094EA15FA1022E02C055953A
:2060E00047950A94E2F740FF4DC00F5FEBA5FCA5178210861186128649A95AA902C0559563
:2061000047952A95E2F740FF28C0BB2049F1682F70E090E080E00E94F55C9B01AC016DA5CA
:206120007EA58FA598A923C031E081E062E0A31629F043E061E08AE0A41281E0ECA1FDA14E
:206140003196FDA3ECA3F4E08F0E911C2BA53CA52C5F3F4F3CA72BA7BACFBB20C9F2682FF6
:2061600070E090E080E00E94F55CA70196010E94A35EF4016083718382839383ECA1FDA118
:206180008081182BA394F7E0AF12CECF602F70E090E080E00E94F35C0E94425FA301920135
:2061A0000E94A35E6B017C0110939E160E948C0B00E020E0B701A601CE0101960E94C12596
:2061C0000E94C6100E948708BB20E9F00E94370EF10130E020E0482F50E09191892F812354
:2061E00059F0BA01022E02C0759567950A94E2F760FF02C0909519232F5F3F4F2730310501
:2062000061F710939E160E94C6108091F114847309F479C08091F114807331F4BB2009F111
:206220008091F11482FF1DC00E94D02A0E947E2BE2960FB6F894DEBF0FBECDBFDF91CF9174
:206240001F910F91FF90EF90DF90CF90BF90AF909F908F907F906F905F904F903F902F90CC
:2062600008959FB7F8948091F1148B7F8093F1149FBF0E94942A0E94631D8091CF15909171
:20628000D0150E945F2A21E0B22609F44FC020E030E040EA50E46091D1157091D2158091CB
:2062A000D3159091D4150E94A35E6B017C014090C7155090C8156090C9157090CA1538A56D
:2062C000315038A73111DFCE90E080E02EA13FA1082E02C0359527950A94E2F720FF06C016
:2062E000E9A5FAA51782108611861286019629A53AA52C5F3F4F3AA729A78730910531F790
:206300000E948C0B95CF8091F11480FF0AC00E9466219FB7F8948091F1148E7F8093F1143B
:206320009FBF812F8E7F09F04FCFA3CFC090D115D090D215E090D315F090D4154090CB15CB
:206340005090CC156090CD157090CE15B8CF82E992E00E94770B80916B00887080936B004D
:20636000809168008E7F809368000E94B0098091CF16811104C081E70E94E62F26C08130BF
:2063800059F480E10E94E62F80E20E94E62F80E40E94E62F81E0F0CF833029F481E70E946A
:2063A000E62F88E0E9CF843081F08B3011F480E1E3CF8C3011F480E2DFCF8D3011F480E4B9
:2063C000DBCF8E3039F3813161F381E08093D01680914E16882339F08091CF16823088F45C
:2063E00081E70E94DB2E0E947E2B80915E16811128C00E94E9090E9454210E94AE080C949D
:20640000660E833069F3843041F482E00E94662F82E10E94662F83E7E4CF8B3011F480E19F
:20642000E0CF8C3011F480E2DCCF8D3011F480E4D8CF8E3011F481E0D4CF8131A1F688E09A
:20644000D0CF08952F923F924F925F926F927F928F929F92AF92BF92CF92DF92EF92FF92C2
:206460000F931F93CF93DF93CDB7DEB7C55AD1090FB6F894DEBF0FBECDBF7C012091501607
:2064800030E02F5F3F4F032E000C440B550B6091D6167091D7168091D8169091D9160E9468
:2064A000EE5F672B682B692B11F00C943746E896FFAEEEAEE897E0EEF6E18AE5DF011D92CF
:2064C0008A95E9F78BE0EAE3F7E1A1EEB6E101900D928A95E1F7E2961FAEE297EE961CAE54
:2064E0001DAE1EAE1FAEEE97512C412CEF961FAEEF97712CE3961FAEE39722242394312C3A
:2065000072E0672EE2968FADE297E896EEADFFADE897E80FF11DB080B11031C0772049F06C
:20652000E3963FADE397311104C042E0E3964FAFE397EB965FADEB9755FF0FC080910D17FC
:2065400090910E17A0910F17B091101780389649A849B10514F00C9449468091E21681300B
:2065600009F0C0C4E396FFADE397F23009F0DDC4EB962FADEB9720FDD8C486E112C15FEB27
:20658000A52EAB0CB9E1BA1510F40C943A468F5FE2968FAFE297AE0143595F4FBE016F5848
:2065A0007F4FE8968EAD9FADE8970E94080D882311F40C943D46E196CCACDDACEEACFFAC42
:2065C000E197C701B6010E94865F0E94C45C162F70E090E080E00E94F55C9B01AC01C70112
:2065E000B6010E944B5B20E030E048EC52E40E94A35E0E94105F0E94C45CE7E4BE1609F410
:2066000027C0FDE4BF1609F4AAC1EA2DAA0CFF0B8827E25FFC4C8F4F0C940D600D372837D8
:206620003437403703374E363A339836A036B136C236D3363A33D7363A33E5363A33EF362D
:20664000F93670373A333A333A334C3758376437183209F47BC1C8F5143170F4113108F04D
:206660003BC1143009F47CC0D0F01530C1F01A3009F468C084E195C01C3109F463C050F411
:206680001631C0F7143109F04FC181E08093E31616E06AC01E3109F455C0163259F7E396AF
:2066A0005FADE39751115AC0123009F4D1C008F0B1C0112309F4BDC0113009F4C2C011E040
:2066C00042E0E3964FAFE3974FC01D3309F439C100F5153309F496C0A0F41B3211F011339B
:2066E00049F6E396FFADE397F11138C0113309F01EC11092E61618E023E0E3962FAFE3973C
:2067000042C01C3308F0B6CF16531093E71619E02BC01C3550F41A3508F0EDC0103509F0F7
:20672000A9CFE8E0E093E11699C01C3559F01F3508F0A0CF1D3509F0F4C081E08093E21696
:2067400015E012C06115710511F00C945B46E3962FADE397222311F40C94704688E121C08B
:2067600081E08093E01610E0672B69F087E119C031E0E3963FAFE3976092E016F4CF53E0C3
:206780005093E01610E0C101012E02C0880F991F0A94E2F79C0124213521232B09F4DBC099
:2067A00085E1CB55DF4F0FB6F894DEBF0FBECDBFDF91CF911F910F91FF90EF90DF90CF90E2
:2067C000BF90AF909F908F907F906F905F904F903F902F90089591E0E3969FAFE3976115AE
:2067E000710541F06A30710509F044CFB6E0B093E016C8CFA5E0A093E016C4CFE1E0E396F5
:20680000EFAFE397F7E0F093E016ADCF38E03093E016B8CF153021F1163259F1133009F017
:206820004ECF1093E11611E0B2E0E396BFAFE3979BCF1092E11611E082E0E3968FAFE39736
:2068400093CF1093E11692E0E3969FAFE3978CCF1093E116A2E0E396AFAFE39711E084CF7D
:20686000E9E0E093E11611E0F2E0E396FFAFE3977BCF6E317105F1F068F46431710509F0E1
:20688000F9CE24E02093E11611E032E0E3963FAFE39779CF68327105B1F06233710509F0A2
:2068A000E9CEA7E0A093E11611E0B2E0E396BFAFE39769CF45E04093E11611E052E0E396C9
:2068C0005FAFE39760CF86E08093E11611E092E0E3969FAFE39757CF123131F0133141F0EE
:2068E0001092E51612E040CF81E08093E516FACF6092E516F7CF6115710551F41A3521F47A
:206900001092E41613E03FCF81E08093E416FACF6A30710509F0AECE1A3509F4ABCE14E065
:2069200032CF1092E2160CCF1092E316B1CE6A30710509F09FCE81E08093E61618E033E0D6
